:020000040800F2
:1000000000500020B9C3000801C4000801C4000862
:1000100001C4000801C4000801C400080000000079
:1000200000000000000000000000000001C4000803
:1000300001C400080000000001C400089B8E0008F5
:1000400001C4000801C4000801C4000801C400087C
:1000500001C4000801C400088D8F0008938F0008B8
:10006000998F00089F8F0008A58F000801C4000821
:1000700001C4000801C4000801C4000801C400084C
:1000800001C4000801C4000801C4000829B1000827
:100090001DB1000801C4000801C40008AB8F0008AE
:1000A00001C400088D81000801C40008A181000876
:1000B000A5810008B9810008CD81000801C40008AD
:1000C00001C4000801C4000801C4000801C40008FC
:1000D00001C40008099B0008219B00083D9B000803
:1000E000D38F000801C400082DB1000800000000F3
:1000F0000000000000000000000000000000000000
:0C01000000000000000000005FF808F1A3
:1001100010F8012B11F8013B012A28BF9A42F7D0B1
:10012000D01A7047034613F8012B002AFBD1181A86
:100130000138704781F0004102E000BF83F00043C6
:1001400030B54FEA41044FEA430594EA050F08BF72
:1001500090EA020F1FBF54EA000C55EA020C7FEA36
:10016000645C7FEA655C00F0E2804FEA5454D4EBB3
:100170005555B8BF6D420CDD2C4480EA020281EA7D
:10018000030382EA000083EA010180EA020281EAB5
:100190000303362D88BF30BD11F0004F4FEA013107
:1001A0004FF4801C4CEA113102D0404261EB410116
:1001B00013F0004F4FEA03334CEA133302D052429C
:1001C00063EB430394EA050F00F0A780A4F1010458
:1001D000D5F1200E0DDB02FA0EFC22FA05F2801892
:1001E00041F1000103FA0EF2801843FA05F3594178
:1001F0000EE0A5F120050EF1200E012A03FA0EFCF7
:1002000028BF4CF0020C43FA05F3C01851EBE37120
:1002100001F0004507D54FF0000EDCF1000C7EEB3D
:1002200000006EEB0101B1F5801F1BD3B1F5001F7B
:100230000CD349085FEA30004FEA3C0C04F101049A
:100240004FEA445212F5800F80F09A80BCF1004FC3
:1002500008BF5FEA500C50F1000041EB045141EA45
:10026000050130BD5FEA4C0C404141EB0101013C0E
:1002700028BFB1F5801FE9D291F0000F04BF0146FD
:100280000020B1FA81F308BF2033A3F10B03B3F1CF
:1002900020020CDA0C3208DD02F1140CC2F10C025F
:1002A00001FA0CF021FA02F10CE002F11402D8BFBD
:1002B000C2F1200C01FA02F120FA0CFCDCBF41EA89
:1002C0000C019040E41AA2BF01EB0451294330BD58
:1002D0006FEA04041F3C1CDA0C340EDC04F1140435
:1002E000C4F1200220FA04F001FA02F340EA03000C
:1002F00021FA04F345EA030130BDC4F10C04C4F152
:10030000200220FA02F001FA04F340EA0300294631
:1003100030BD21FA04F0294630BD94F0000F83F47B
:10032000801306BF81F480110134013D4EE77FEA5E
:10033000645C18BF7FEA655C29D094EA050F08BFAA
:1003400090EA020F05D054EA000C04BF194610468B
:1003500030BD91EA030F1EBF0021002030BD5FEACF
:10036000545C05D14000494128BF41F0004130BDF7
:1003700014F580043CBF01F5801130BD01F000454B
:1003800045F0FE4141F470014FF0000030BD7FEABE
:10039000645C1ABF194610467FEA655C1CBF0B46B9
:1003A000024650EA013406BF52EA033591EA030FD0
:1003B00041F4002130BD00BF90F0000F04BF0021C8
:1003C000704730B54FF4806404F132044FF00005FB
:1003D0004FF0000150E700BF90F0000F04BF002174
:1003E000704730B54FF4806404F1320410F00045DA
:1003F00048BF40424FF000013EE700BF42004FEAD5
:10040000E2014FEA31014FEA02701FBF12F07F4351
:1004100093F07F4F81F06051704732F07F4208BF08
:10042000704793F07F4F04BF41F40021704730B50F
:100430004FF4607401F0004521F000411CE700BF5B
:1004400050EA010208BF704730B54FF000050AE0DE
:1004500050EA010208BF704730B511F0004502D5DF
:10046000404261EB41014FF4806404F132045FEAE1
:10047000915C3FF4D8AE4FF003025FEADC0C18BF8A
:1004800003325FEADC0C18BF033202EBDC02C2F17C
:10049000200300FA03FC20FA02F001FA03FE40EA0E
:1004A0000E0021FA02F11444BDE600BF70B54FF012
:1004B000FF0C4CF4E06C1CEA11541DBF1CEA1355F0
:1004C00094EA0C0F95EA0C0F00F0DEF82C4481EA58
:1004D000030621EA4C5123EA4C5350EA013518BF78
:1004E00052EA033541F4801143F4801338D0A0FB65
:1004F00002CE4FF00005E1FB02E506F00042E0FB12
:1005000003E54FF00006E1FB03569CF0000F18BF17
:100510004EF0010EA4F1FF04B6F5007F64F54074BF
:1005200004D25FEA4E0E6D4146EB060642EAC62152
:1005300041EA55514FEAC52040EA5E504FEACE2EBF
:10054000B4F1FD0C88BFBCF5E06F1ED8BEF1004FC2
:1005500008BF5FEA500E50F1000041EB045170BD3E
:1005600006F0004646EA010140EA020081EA030182
:10057000B4EB5C04C2BFD4EB0C0541EA045170BD7E
:1005800041F480114FF0000E013C00F3AB8014F1F8
:10059000360FDEBF002001F0004170BDC4F1000441
:1005A000203C35DA0C341BDC04F11404C4F12005C2
:1005B00000FA05F320FA04F001FA05F240EA02001D
:1005C00001F0004221F0004110EBD37021FA04F653
:1005D00042EB06015EEA430E08BF20EAD37070BD0D
:1005E000C4F10C04C4F1200500FA04F320FA05F06C
:1005F00001FA04F240EA020001F0004110EBD3706E
:1006000041F100015EEA430E08BF20EAD37070BDDD
:10061000C4F1200500FA05F24EEA020E20FA04F3B6
:1006200001FA05F243EA020321FA04F001F0004165
:1006300021FA04F220EA020000EBD3705EEA430ED6
:1006400008BF20EAD37070BD94F0000F0FD101F005
:100650000046400041EB010111F4801F08BF013C3E
:10066000F7D041EA060195F0000F18BF704703F07C
:100670000046520043EB030313F4801F08BF013D03
:10068000F7D043EA0603704794EA0C0F0CEA1355BF
:1006900018BF95EA0C0F0CD050EA410618BF52EA79
:1006A0004306D1D181EA030101F000414FF000007F
:1006B00070BD50EA410606BF1046194652EA43068D
:1006C00019D094EA0C0F02D150EA013613D195EA01
:1006D0000C0F05D152EA03361CBF104619460AD149
:1006E00081EA030101F0004141F0FE4141F4700153
:1006F0004FF0000070BD41F0FE4141F4780170BD43
:1007000070B54FF0FF0C4CF4E06C1CEA11541DBFA7
:100710001CEA135594EA0C0F95EA0C0F00F0A7F8A9
:10072000A4EB050481EA030E52EA03354FEA0131D6
:1007300000F088804FEA03334FF0805545EA1313E9
:1007400043EA12634FEA022245EA111545EA1065B1
:100750004FEA00260EF000419D4208BF964244F148
:10076000FD0404F5407402D25B084FEA3202B61A67
:1007700065EB03055B084FEA32024FF480104FF43B
:10078000002CB6EB020E75EB030E22BFB61A7546AF
:1007900040EA0C005B084FEA3202B6EB020E75EB42
:1007A000030E22BFB61A754640EA5C005B084FEAAA
:1007B0003202B6EB020E75EB030E22BFB61A754677
:1007C00040EA9C005B084FEA3202B6EB020E75EB82
:1007D000030E22BFB61A754640EADC0055EA060E43
:1007E00018D04FEA051545EA16754FEA06164FEA86
:1007F000C30343EA52734FEAC2025FEA1C1CC0D132
:1008000011F4801F0BD141EA00014FF000004FF0BE
:10081000004CB6E711F4801F04BF01430020B4F17F
:10082000FD0C88BFBCF5E06F3FF6AFAEB5EB030C37
:1008300004BFB6EB020C5FEA500C50F1000041EB34
:10084000045170BD0EF0004E4EEA113114EB5C0401
:10085000C2BFD4EB0C0541EA045170BD41F48011D4
:100860004FF0000E013C90E645EA060E8DE60CEADC
:10087000135594EA0C0F08BF95EA0C0F3FF43BAFF9
:1008800094EA0C0F0AD150EA01347FF434AF95EAB0
:100890000C0F7FF425AF104619462CE795EA0C0F94
:1008A00006D152EA03353FF4FDAE1046194622E761
:1008B00050EA410618BF52EA43067FF4C5AE50EA3B
:1008C00041047FF40DAF52EA43057FF4EBAE12E72B
:1008D0004FF0FF3C06E000BF4FF0010C02E000BF0C
:1008E0004FF0010C4DF804CD4FEA410C7FEA6C5CEF
:1008F0004FEA430C18BF7FEA6C5C1BD001B050EA92
:10090000410C0CBF52EA430C91EA030F02BF90EA7C
:10091000020F0020704710F1000F91EA030F58BF3B
:10092000994208BF90422CBFD8176FEAE37040F09D
:10093000010070474FEA410C7FEA6C5C02D150EA3B
:10094000013C07D14FEA430C7FEA6C5CD6D152EAF6
:10095000033CD3D05DF8040B704700BF84461046BB
:1009600062468C461946634600E000BF01B5FFF7BA
:10097000B7FF002848BF10F1000F01BD4DF808ED8A
:10098000FFF7F4FF0CBF012000205DF808FB00BF5B
:100990004DF808EDFFF7EAFF34BF012000205DF8B5
:1009A00008FB00BF4DF808EDFFF7E0FF94BF012002
:1009B00000205DF808FB00BF4DF808EDFFF7CEFF03
:1009C00094BF012000205DF808FB00BF4DF808ED42
:1009D000FFF7C4FF34BF012000205DF808FB00BF13
:1009E0004FEA410C7FEA6C5C02D150EA013C0AD12B
:1009F0004FEA430C7FEA6C5C02D152EA033C02D11D
:100A00004FF0000070474FF0010070474A0011D2CC
:100A100012F5001211D20DD56FF47873B3EB625258
:100A20000ED44FEAC12343F0004343EA505323FA64
:100A300002F070474FF00000704750EA013002D1D9
:100A40004FF0FF3070474FF0000070474FEA41020F
:100A5000B2F1E04324BFB3F5001CDCF1FE5C0DD91C
:100A600001F0004C4FEAC0024CEA5070B2F1004F66
:100A700040EB830008BF20F00100704711F0804F69
:100A800021D113F13872BCBF01F00040704741F42E
:100A900080114FEA5252C2F11802C2F1200C10FA32
:100AA0000CF320FA02F018BF40F001004FEAC12316
:100AB0004FEAD32303FA0CFC40EA0C0023FA02F3BA
:100AC0004FEA4303CCE77FEA625307D150EA013390
:100AD0001EBF4FF0FE4040F44000704701F0004060
:100AE00040F0FE4040F40000704700BF80F000403E
:100AF00002E000BF81F0004142001FBF5FEA4103F6
:100B000092EA030F7FEA226C7FEA236C6AD04FEAF5
:100B10001262D2EB1363C1BFD2184140484041403A
:100B2000B8BF5B42192B88BF704710F0004F40F4EC
:100B3000000020F07F4018BF404211F0004F41F408
:100B4000000121F07F4118BF494292EA030F3FD0D4
:100B5000A2F1010241FA03FC10EB0C00C3F12003E7
:100B600001FA03F100F0004302D5494260EB400076
:100B7000B0F5000F13D3B0F1807F06D340084FEAE1
:100B8000310102F10102FE2A51D2B1F1004F40EBD6
:100B9000C25008BF20F0010040EA0300704749003E
:100BA00040EB0000013A28BFB0F5000FEDD2B0FADB
:100BB00080FCACF1080CB2EB0C0200FA0CF0AABFFE
:100BC00000EBC25052421843BCBFD040184370479C
:100BD00092F0000F81F4000106BF80F400000132A2
:100BE000013BB5E74FEA41037FEA226C18BF7FEA79
:100BF000236C21D092EA030F04D092F0000F08BFBB
:100C00000846704790EA010F1CBF0020704712F0A1
:100C10007F4F04D1400028BF40F00040704712F1E0
:100C200000723CBF00F50000704700F0004343F045
:100C3000FE4040F4000070477FEA226216BF08467B
:100C40007FEA23630146420206BF5FEA412390EA3E
:100C5000010F40F4800070474FF0000304E000BF34
:100C600010F0004348BF40425FEA000C08BF7047E5
:100C700043F0964301464FF000001CE050EA0102A9
:100C800008BF70474FF000030AE000BF50EA0102BE
:100C900008BF704711F0004302D5404261EB4101AB
:100CA0005FEA010C02BF84460146002043F0B643D0
:100CB00008BFA3F18053A3F50003BCFA8CF2083AF5
:100CC000A3EBC25310DB01FA02FC634400FA02FCFE
:100CD000C2F12002BCF1004F20FA02F243EB020005
:100CE00008BF20F00100704702F1200201FA02FC67
:100CF000C2F1200250EA4C0021FA02F243EB02005A
:100D000008BF20EADC7070474FF0FF0C1CEAD0529D
:100D10001EBF1CEAD15392EA0C0F93EA0C0F6FD05E
:100D20001A4480EA010C400218BF5FEA41211ED03C
:100D30004FF0006343EA501043EA5111A0FB013128
:100D40000CF00040B1F5000F3EBF490041EAD371FD
:100D50005B0040EA010062F17F02FD2A1DD8B3F179
:100D6000004F40EBC25008BF20F00100704790F0E8
:100D7000000F0CF0004C08BF49024CEA502040EA3A
:100D800051207F3AC2BFD2F1FF0340EAC250704700
:100D900040F400004FF00003013A5DDC12F1190F3E
:100DA000DCBF00F000407047C2F10002410021FAB0
:100DB00002F1C2F1200200FA02FC5FEA310040F1C8
:100DC000000053EA4C0308BF20EADC70704792F041
:100DD000000F00F0004C02BF400010F4000F013A79
:100DE000F9D040EA0C0093F0000F01F0004C02BF74
:100DF000490011F4000F013BF9D041EA0C018FE7E3
:100E00000CEAD15392EA0C0F18BF93EA0C0F0AD0E8
:100E100030F0004C18BF31F0004CD8D180EA01000E
:100E200000F00040704790F0000F17BF90F0004FA7
:100E3000084691F0000F91F0004F14D092EA0C0F89
:100E400001D142020FD193EA0C0F03D14B0218BF1C
:100E5000084608D180EA010000F0004040F0FE4062
:100E600040F40000704740F0FE4040F440007047FE
:100E70004FF0FF0C1CEAD0521EBF1CEAD15392EA7D
:100E80000C0F93EA0C0F69D0A2EB030280EA010C6D
:100E900049024FEA402037D04FF0805343EA111106
:100EA00043EA10130CF000408B4238BF5B0042F164
:100EB0007D024FF4000C8B4224BF5B1A40EA0C0009
:100EC000B3EB510F24BFA3EB510340EA5C00B3EB3B
:100ED000910F24BFA3EB910340EA9C00B3EBD10F29
:100EE00024BFA3EBD10340EADC001B0118BF5FEA7B
:100EF0001C1CE0D1FD2A3FF650AF8B4240EBC250A4
:100F000008BF20F0010070470CF0004C4CEA502064
:100F10007F32C2BFD2F1FF0340EAC250704740F4B3
:100F200000004FF00003013A37E792F0000F00F0A5
:100F3000004C02BF400010F4000F013AF9D040EA23
:100F40000C0093F0000F01F0004C02BF490011F4B7
:100F5000000F013BF9D041EA0C0195E70CEAD153AF
:100F600092EA0C0F08D142027FF47DAF93EA0C0F96
:100F70007FF470AF084676E793EA0C0F04D14B027A
:100F80003FF44CAF08466EE730F0004C18BF31F02C
:100F9000004CCAD130F000427FF45CAF31F0004326
:100FA0007FF43CAF5FE700BF4FF0FF3C06E000BFBF
:100FB0004FF0010C02E000BF4FF0010C4DF804CDE2
:100FC0004FEA40024FEA41037FEA226C18BF7FEAF2
:100FD000236C11D001B052EA530C18BF90EA010FF4
:100FE00058BFB2EB030088BFC81738BF6FEAE17083
:100FF00018BF40F0010070477FEA226C02D15FEA1F
:10100000402C05D17FEA236CE4D15FEA412CE1D08A
:101010005DF8040B704700BF844608466146FFE751
:101020000FB5FFF7C9FF002848BF10F1000F0FBD33
:101030004DF808EDFFF7F4FF0CBF012000205DF82C
:1010400008FB00BF4DF808EDFFF7EAFF34BF0120B1
:1010500000205DF808FB00BF4DF808EDFFF7E0FF4A
:1010600094BF012000205DF808FB00BF4DF808ED9B
:10107000FFF7D2FF94BF012000205DF808FB00BFFE
:101080004DF808EDFFF7C8FF34BF012000205DF8E0
:1010900008FB00BF4FEA40024FEA41037FEA226C9F
:1010A00002D15FEA402C08D17FEA236C02D15FEACB
:1010B000412C02D14FF0000070474FF00100704703
:1010C00042000ED2B2F1FE4F0BD34FF09E03B3EBB2
:1010D000126209D44FEA002343F0004323FA02F0DE
:1010E00070474FF00000704712F1610F01D14202CA
:1010F00002D14FF0FF3070474FF00000704700BF43
:1011000053B94AB9002908BF00281CBF4FF0FF316E
:101110004FF0FF3000F00CB8ADF1080C6DE904CED3
:101120000BF00CFDDDF804E0DDE9022304B07047AC
:10113000704700BF10B5054C237833B9044B13B189
:101140000448AFF300800123237010BD200200206B
:101150000000000038CE000808B5034B1BB103495E
:101160000348AFF3008008BD000000002402002007
:1011700038CE0008084611460BF0D2BA08460BF0EC
:1011800019BA08460BF00EBA4FF6FF7399421FBF0B
:10119000CB0900EBC300406801F07F0114BF00EBF6
:1011A000C1000020704770B540B14A68C3889342BF
:1011B0000BD10A68C41D13449A4200D170BD12F8C5
:1011C000015B14F8016FAE42F6D00068ECE710B591
:1011D0000446B4F5803F084609D20B6804F10901C2
:1011E0001B68984710B10123C480838010BD002084
:1011F000FCE702460B6808465B681146184738B59D
:101200000B790446042B0D460AD0052B13D0022B74
:1012100017D10846FEF786FFC4E90050002307E017
:101220000D6828460DB1FEF77DFF0123C4E900508B
:101230002372204638BD0B68DA880833C0E90032D3
:10124000ECE70023C0E9003301238360F1E72DE9D7
:10125000FF4117460C4671B3DE6A01883046FFF73E
:1012600093FF014638B34FF00108C588B8F1000F6D
:1012700017D001A8FFF7C3FF029A974211D10023AC
:1012800001999A4206D12946304604B0BDE8F041A2
:10129000FFF77ABF14F803C0C85C844501D101335D
:1012A000EFE729463046FFF76FFF014618B1C588C2
:1012B00088F00108DAE7002004B0BDE8F081B2F55B
:1012C000803FF8B505460F461446066807D23368D6
:1012D00030469B680932984708B1C480F8BD33682E
:1012E00030465B6839469847012300202B71F5E7AB
:1012F0002DE9F74F9DF930509B4692462C46012729
:101300000A23019014B15F43013CFBE750465CA304
:10131000D3E900235946FFF74FFB002872D04FF462
:101320008076DFF86C81DFF86C91524678E9020133
:101330005B46FFF737FB48B1D9E9102350465946C1
:10134000FFF7B4F882468B46344424B2524B7610F1
:101350004345A9F10809E8D14FF0FF3800220023E6
:1013600050465946FFF732FB70B147A3D3E900233B
:1013700050465946FFF716FB30B1464B03EBC80900
:101380004FFA88F3013342D150465946FFF73EFBEE
:101390000A2206460346092B55D83046FFF70CF8BB
:1013A00002460B4650465946FEF7C8FE8046384670
:1013B0008946FFF701F802460B4640464946FFF7CB
:1013C00075F889468046FFF721FB8346FEF7F4FF58
:1013D00002460B4640464946FEF7B0FE02460B4623
:1013E000FEF7AEFEFFF712FB5844874208D80136DD
:1013F000002C42D0092E40D900200126013424B20D
:101400000A222AE04FF480764FF00808A6E700226F
:1014100079E80201214BFFF749F852465B46FFF796
:10142000D5FA60B11C4B504603EBC8035946D3E9CB
:101430000023FFF73BF882468B46A41B24B27610AC
:1014400008F1FF389CE7013DB7FBF2F7B3FBF2F37D
:101450006DB2A0E71846013D6DB2B0FBF2F302FB9E
:10146000130109B9002DF5DC019BC3E900601846A2
:101470001C819D7203B0BDE8F08F0020C0E700BF63
:1014800000000000D0126341F168E388B5F8E43E43
:1014900068DE0008D8DD000820DE000800002440D7
:1014A00038B50025436A044603441D71011D0068D8
:1014B0000AF0D6FD00B16562606A38BD38B5436A8E
:1014C000044601331F2B0D4606D80120636A5A1CBF
:1014D00062621C44257138BDFFF7E2FF0028F4D09A
:1014E0000020F8E738B5002383604368044643B919
:1014F00005681F202968FFF76AFE08B901232B71D0
:10150000606038BD38B50D464168044681B18268D7
:10151000CB889A4207D1520000680132FFF7CFFE14
:101520000146606020B1A068421C0844A2600572B8
:1015300038BD2DE9F84303790546DA070C4610D586
:1015400000220368886860B1834225D183882168BE
:10155000013B9BB2838023B90368DAB11360FFF7C4
:1015600048FE2A79D30607D52E88E06A3146FFF770
:101570000BFEA38E0380A68612F0600F06D04FF6F6
:10158000FF782E8846450AD12E806E8000232B716D
:10159000BDE8F883A360E2E702460068D3E731467E
:1015A000E06AFFF7F1FD07462146B0F80690FFF725
:1015B000C0FFA38E3B80A6864E46E3E72DE9F843A5
:1015C0000B7805462B2B0FD02D2B0ED10126013188
:1015D0000B78A3F13002092A40F288802E2B00F00C
:1015E000858000232B7097E001310026F0E78445C9
:1015F0007EEB01021CD307FB01F2A0FB07011144A3
:1016000013EB000951F100094FF0000228BF01223D
:1016100072B91B181846A04641F10001444614F85F
:10162000012BA2F13003DBB2092BE0D9002A66D0EE
:101630000024B1F5801F04F1010773D2424613461E
:1016400012F8017BA7F1300CBCF1090FF7D9A4EB1C
:1016500008041C442E2F24B20CD194464FF00A0EDD
:10166000DFF89C8163461CF8017BA7F13002D2B2FF
:10167000092A5DD907F0DF02452A40F08D805A78AB
:101680002D2A65D14FF0010C023300224FF00A09D8
:10169000013B13F8017FA7F1300E5FFA8EF8B8F125
:1016A000090F5BD9BCF1000F00D05242002F98D136
:1016B000144404F126034C2B7AD8B0F5000F71F1D5
:1016C000000375D2FFF7DAFA4E4B4F4A002CD4BF15
:1016D00098469046002CB8BF6442002C5ED1002E84
:1016E00040F08A800123A8602B7015E00020884616
:1016F0004FF0993C01460A27DFF810E18EE776B1FA
:101700004FF0004382428B4192D3022340422B7020
:1017100061EB4101C5E902012846BDE8F8830323D6
:101720002B70F7E70A220023FFF7EAFC3C4680E72C
:10173000B0F1993F71EB080394D2A0FB0E030EFBAE
:101740000133101804F1FF3443F1000124B289E79A
:101750002B2A1FD102334FF0000C96E709FB02E25F
:10176000A718B7F59A7F94DDBCF1000F08D02EB111
:101770004FF000430122AB602A70CDE70023F9E768
:1017800000222EB1224B0421C5E902232970C3E7B0
:10179000204BF8E70133DEE7002287E7E20704D5B4
:1017A000FBB258F82310FFF7AFFA6410013794E743
:1017B0004FF00008FEF744FE174F184B002CC8BF2F
:1017C0001F46002CB8BF644244B916B101F1004372
:1017D00019460423C5E902012B709DE7E30707D5ED
:1017E0005FFA88F307EBC303D3E90023FEF75EFE3D
:1017F000641008F10108E7E700F1004072E700BF5C
:1018000099990100A4DD0008BCDD00089999991997
:101810000000F0FF0000F07FD8DD000820DE0008A7
:1018200038B505460C46094809490AF08CF829469E
:1018300006480AF088F8074904480AF084F8214667
:10184000BDE8384001480AF097B800BFD80400202E
:1018500050CE000852CE00081FB5044601A80AF079
:1018600050FB204601A9FFF7DBFF01A80AF007FBA8
:1018700004B010BDF0B506460D46002487B0571ED3
:10188000A74206EB040001DD295DD1B9002103F078
:10189000CDFA0E4903A80AF034FB294668460AF03F
:1018A00030FB694603A80AF008FC01460848FFF728
:1018B000B7FF68460AF0E3FA03A80AF0E0FA07B0B7
:1018C000F0BD03F0B3FA0134DAE700BF55CE0008EB
:1018D0007FCE00082DE9F043002481460D460F46D7
:1018E00026468BB002F1FF38B04507DD09EB060054
:1018F00003F064FA431EDBB2FD2B07D900233B70D3
:101900004CB9164907A80AF0FCFA14E0012407F8BC
:10191000010B0136E8E7124904A80AF0F2FA294659
:1019200001A80AF0EEFA01A904A80AF0C6FB0146D4
:1019300007A80AF025FB0B4807A9FFF771FF07A8C6
:101940000AF09DFA2CB101A80AF099FA04A80AF04D
:1019500096FA20460BB0BDE8F08300BF72CE0008B7
:1019600064CE00087FCE0008F8B504460D46014657
:10197000154816460AF00AF81449154809F0DAFF26
:10198000214613480AF002F80AF0D4FD07460AF08F
:10199000D1FDC31BB34205D30E490D4809F0E2FF48
:1019A00000240EE0294608480AF054FA04460028AC
:1019B000EDD00949064809F0BDFF2946044809F061
:1019C000E5FF2046F8BD00BF7C0D002086CE000854
:1019D000D804002092CE00088CCE000810B5084C28
:1019E00023685BB10AF0A6FD236800F5922000F59C
:1019F0007870984234BF0020012010BD0120FCE720
:101A00003C0300202DE9F047002604460D46B04671
:101A1000A28CB3B29A42276A10D80023A3844FF64F
:101A2000FF73BC42238507D02B6839465B68284684
:101A3000984704232462E384BDE8F0871FFA86FAFE
:101A400007EBCA09D9F8041019B12B6828465B685E
:101A5000984747F83A800136C9F80480D8E738B586
:101A6000044650F80C1BFFF7CDFF002325682371B7
:101A7000A06810B984F83C0038BD03682946A3600B
:101A8000FFF7B7FBF4E738B504460568A06830B93E
:101A9000204650F80C1BFFF7B5FF204638BD036801
:101AA0002946A360FFF7A5FBF0E7022310B50371F9
:101AB00000230A79DCB2A24202D80023835410BD6D
:101AC0000C68E45CC4540133F4E72DE9F043826808
:101AD0004368032A04460D4685B003F108071CD865
:101AE000002001460733D6B25FFA80FCB4450BD321
:101AF00099B98DF80C10284601A9CDE90172FFF7BC
:101B0000D4FF05B0BDE8F08313F801CF0130BCF17C
:101B1000000F08BF41F00101E6E70026BE54D4F8EB
:101B20000080D4F80890D8F8080001A9CDE901791F
:101B30008DF80C60FFF737FB68B94A46404661688C
:101B4000FFF7BDFB23689A68026098606660052312
:101B500028602B71D5E7838801338380F7E78B8C6E
:101B600030B5013B0D6A9BB205EBC304616869B1F6
:101B7000628835F83350954208D9551C01EBC201F3
:101B800002EBC31265800160828030BD00230360D8
:101B90004FF6FF738380F8E74FF6FF732DE9F347A5
:101BA00017460A8D05469A420C460BD01146206A0C
:101BB000FFF7EAFA038828602385AA80284602B046
:101BC000BDE8F0878B8C53B16846FFF7C8FF009BD8
:101BD0006E4623B1DDE9000185E80300EEE7E28C03
:101BE000A38C93421CD1B3F5007F43D05B009EB21F
:101BF000236A3968A3424FEAC60234D10B683846DB
:101C000011469847002835D02346024604F12001AA
:101C100053F804CB8B4242F804CBF9D12062E6841E
:101C2000B4F82480384608F101039BB2B3F5007F75
:101C30000CBF7F268026A3843B68F1001B68D4F884
:101C400020909847002808BF0026002309EBC80A07
:101C5000CAF80400214629F838602846AAF802305C
:101C6000FFF77DFFAAE7D1F8088038461946C0473C
:101C70000028D3D100232B604FF6FF73AB809DE784
:101C800037B50D46044651F80C2B6846FFF784FF24
:101C9000009B43B9012223604FF6FF732A71A38092
:101CA000204603B030BD034A23605A60BDF80420CB
:101CB000A280F5E70000FFFF37B50D46044651F856
:101CC0000C2B6846FFF768FF009B43B90122236095
:101CD0004FF6FF732A71A380204603B030BDBDF8D4
:101CE00004202360A280F7E72DE9F0418AB0054681
:101CF00001A80C4680E80E00109F00294BD09DF8EB
:101D00000C3033B1042329602B7101200AB0BDE8E7
:101D1000F081029E032E11D80A4671188A4205D11D
:101D200063B901462846FFF7C0FEEEE712F801CB83
:101D3000BCF1000F08BF43F00103EFE70DF11C0CED
:101D400004AB07C883E807008CE807006146B86861
:101D5000D7F80080FFF727FA30B1838801338380FA
:101D6000052328602B71D0E741463046FFF72FFA54
:101D700078B1C31DA219944206D1002306443372E0
:101D8000BB680360B860EBE714F8011B03F8011FA0
:101D9000F1E701233B710020B8E7437E6BB9D0E93E
:101DA000043293422FBF4FF0FF335A1C02611B785D
:101DB00023EAE373037601234376007E7047000035
:101DC00010B504462046FFF7E8FF68B1A0F109030B
:101DD000DBB2172B04D8084A22FA03F3DB0707D437
:101DE00001230020237302E0207B0130C0B210BD2C
:101DF00000236376E6E700BF1300800070B5054658
:101E000000264C1E14F8010F00B970BD2846FFF7DC
:101E1000C4FF20B12378834203D16E76F2E702201B
:101E2000F3E70320F1E7F7B51946044610461646D6
:101E30001F46FEF70BFE0546FEF7E0FA32463B462C
:101E4000FEF79CFD28B10E2325602371012003B00D
:101E5000F0BD68460899FFF72FFF00980028F6D0DC
:101E60001E232371BDF804302380C0E90067EDE72D
:101E70002DE9F047054688B005F11F070C463E46A0
:101E8000FFF78BFF4FF00008DFF8F0A005F15E09C7
:101E9000A0F13003DBB2092B20D945281CD82A2811
:101EA00006D9A0F12B03DBB22AFA03F3DB0715D422
:101EB0000023F61BF6B22E4486F8203005F12001EF
:101EC00004A8FFF77BFB9DF81030013B032B53D890
:101ED000DFE803F041260E466528E9D14E45E7D0FC
:101EE00085F8198006F8010F2846FFF756FFCFE75F
:101EF000DDE9067636B90A2327602371002008B091
:101F0000BDE8F087E96902A8FFF7D6FE029BC3B1DE
:101F10001A222271BDF80C202280C3E90076EDE779
:101F2000DDE9066716F1004347F100031BB90C23F6
:101F300026602371E2E7E96902A8FFF7BDFE029B74
:101F40000BB90420DBE71C222271BDF80C20228093
:101F5000C3E90067D2E70E232371069B2360CDE718
:101F6000EB6920460093DDE90623FFF75CFF80F074
:101F700001008000C0B2C2E70320C0E70D000004EA
:101F80002DE9F04391B0044603A80D4680E80E0009
:101F9000DDF86080002940D02379002B41D14FF03B
:101FA000FF332360202323710AAF07C8434687E825
:101FB000070029462046049AFFF749F9054660BB09
:101FC00097E807000DAE86E80700414606A8FFF730
:101FD00057FE069F0FB3414608A8FFF751FEDDF8F4
:101FE0002090B9F1000F18D0CDF80080384696E85F
:101FF0000E00FFF779FE80B14FF6FF73BDF8242085
:10200000BDF81C50FA80618899420ED0D8F82C0097
:10201000FFF7BAF8C5804D466280284611B0BDE88A
:10202000F083202BC0D00025F7E72580F3E713B518
:1020300050F8044B009490E80E0004F13800FFF7CC
:102040009FFF02B010BDF7B5D1E900670546FFF765
:10205000EEFF044648B12D682946FFF76AFA32467A
:102060003B4620460095FFF7DEFE03B0F0BD70B59D
:1020700086B006460C46FFF7DAFF3668054620466E
:102080000CB1FEF74FF80023CDE903408DF8143072
:1020900055B131462846FFF74CFA009606AB284664
:1020A00013E90E00FFF720FE06B070BD70B50646BE
:1020B0000D46FFF7BCFF044628B13168FFF739FA37
:1020C0000E232560237170BD034607B5406828B113
:1020D0009A680C3300920ECBFFF752FF03B05DF805
:1020E00004FBF8B5054616460C468F18BC4203D1D2
:1020F000AB6A3344AB62F8BD284614F8011BFFF706
:10210000DDF9F3E738B5054608460C46FEF70AF850
:10211000214602462846FFF7E4FF38BD2DE9F0418D
:1021200086B00DF11604074616461D46A0463046F9
:1021300029460A220023FEF7E3FF303204F8012D7E
:1021400032462B460A2A73F1000306460D46EED2AC
:1021500021463846A8EB0402FFF7C3FF06B0BDE8EE
:10216000F08138B504460D46FFF717FEA8424FF040
:10217000000004BF6076012038BD0246036810B439
:10218000D2E9011293F83C4003F13800202C02D12F
:1021900010BCFFF75CB8002010BC70471FB5FFF7FC
:1021A000ECFF20B1014601A8FFF729F8019805B01E
:1021B0005DF804FB7F2837B50C46C1B204D8204631
:1021C000FFF7A0F903B030BD002201F03F018DF808
:1021D0000020C0F38F1261F07F011F2A8DF80110DB
:1021E000C0F387130DD863F03F038DF802300DF173
:1021F000030515F8011D0029E4D02046FFF782F9F8
:10220000F7E703F03F0363F07F03B2F5806F8DF8CB
:102210000230C2F3871305D263F01F038DF8033039
:1022200001ADE6E703F03F03120B63F07F0362F0BA
:102230000F028DF803308DF804200DF10505D8E765
:102240002DE9F04704460025FFF7A7FD2F46064677
:1022500065762046FFF7A1FD86420146677657D096
:1022600008B9022059E05C284ED12046FFF795FDC1
:102270000028F6D075283BD14FF0000A4FF0040833
:10228000D14667762046FFF788FD0028E9D0402830
:102290008ABF20F02003A0F13003373BDBB20F2BC5
:1022A0002DD808F1FF3843EA0A1318F0FF081AB2D4
:1022B0001FFA83FA84F81990E4D10AF520539BB2EF
:1022C000B3F5806F02D2C2F30905C2E70AF51053D5
:1022D0009BB2B3F5806F3ABFC2F3090242EA85228E
:1022E0005046214638BF02F58030FFF763FFB0E764
:1022F0000B4B1A781AB1904203D1597819B90320BF
:102300000BE00233F5E767762046FFF7FBF8A0E71E
:102310006068B0FA80F040098000BDE8F08700BF37
:10232000A1CE000810B50446FFF7C8F8A36A03441D
:10233000A36210BDF8B50D46164622210446FFF7EC
:10234000F1FF2E44B54204D122212046FFF7EAFFD7
:10235000F8BD15F8011B0B4B1F7967B15A79023391
:102360008A42F9D15C212046FFF7DCFF394620463E
:10237000FFF7D8FFE6E70029F9D120460249FFF729
:10238000C1FEDFE7A1CE0008B4CE000870B51D1E67
:102390000646144605DA2D21FFF7C4FF644265EBBB
:1023A000450522462B463046FFF7B8FE70BD0000BB
:1023B000F0B5194606468DB0104614461D46FEF788
:1023C000DDFA28B930464549FFF79CFE0DB0F0BD57
:1023D0000022002320462946FEF7D0FA68B922469B
:1023E0002B4620462946FDF7ABFE02460B4620460B
:1023F0002946FEF7C3FA0028E4D100220023204634
:102400002946FEF7C5FA30B12D213046FFF78AFF85
:1024100005F100431D469DF948302246009303A86C
:102420002B46FEF765FF0DF12E010D464FF00A0C0D
:10243000BDF914709DF91640039BB3FBFCF00CFB37
:102440001032303201F8012D1A46092A0346F4D819
:1024500030466A1AFFF745FEACB10AAA104621467B
:102460004FF00A0C049B013949B2B1F1FF3F2BD167
:102470002E23E4B2511E091B141B304604F8013C04
:10248000521AFFF72EFE002FA0D065213046FFF72D
:1024900049FF002FBCB205DA2D213046FFF742FF7D
:1024A0006442A4B229460A20B4FBF0F200FB1243B6
:1024B000303301F8013D2346092B94B2F4D830465D
:1024C0006A1AFFF70EFE81E7B3FBFCFE0CFB1E331E
:1024D000303300F8013D7346C5E700BFBBCE0008AE
:1024E000F7B50679054616F010000C4607D0298886
:1024F000D06AFEF749FE202E05D96949C9E0202E91
:1025000046D8012EF9D9023E1E2EF6D801A353F863
:1025100026F000BF3D2600085B260008392600088B
:10252000532600088D260008FB240008FB24000821
:10253000FB24000875260008FB2400086926000813
:10254000FB240008C9250008FB240008FB24000820
:10255000FB240008FB240008FB240008FB240008DF
:10256000FB240008FB240008FB240008FB240008CF
:10257000FB24000887260008FB24000881260008A9
:10258000FB240008E1250008FB240008F5250008CD
:10259000402EB2D14FF6FF765B212046FFF7C2FEF8
:1025A0002D88B5420BD0E26A2946D06AFEF7ECFDD1
:1025B00005462146FFF794FFED88B54215D15D2110
:1025C0002046FFF7AFFE09E02868FDF717FF0B462E
:1025D0000621024600912046FFF7EAFE03B0F0BD57
:1025E00009230093D0E90023F5E72C212046FFF7CB
:1025F00099FED8E74FF6FF777B212046FFF792FE42
:102600002D88BD4216D00126E26A2946D06AFEF71F
:10261000BBFD05462146FFF763FFED88BD4209D0AB
:10262000002E0CBF2C213A212046FFF77BFE86F0BE
:102630000106E9E77D21C3E72D6845B12846FDF78E
:1026400071FD024629462046FFF774FEC6E72A467A
:10265000F8E72968CA880831F5E729682046CA885A
:102660000831FFF73EFDB9E72A68D3172046FFF788
:102670008DFEB3E700232A682046FFF74FFDADE744
:10268000D0E90023F2E7D0E90023F5E72B7823B166
:1026900004492046FFF736FDA0E70349F9E700BFEC
:1026A000BBCE0008C0CE0008C5CE00082DE9F04121
:1026B0000026B6B0CDE900018846104631460CAC84
:1026C00002AD009F02920B9609F06CFC0FCD0FC477
:1026D0000FCD0FC495E803000DF1300C16AD84E862
:1026E0000300BCE80F000FC5BCE80F000FC594E85D
:1026F000030085E8030020AC0DF1580CBCE80F0086
:102700000FC4BCE80F000FC495E8030084E8030081
:102710002AAD0DF1800CBCE80F000FC5BCE80F001E
:102720000FC594E8030085E8030020A83496FEF75F
:10273000B7FE16A8CDF8D480FEF7B2FE87B14246A8
:1027400038462AA9FFF7CCFE2AA8FEF7A9FE0CA856
:10275000FEF7A6FE02A8FEF7A3FE36B0BDE8F081A4
:1027600002492AA8FFF7CEFCEEE700BFBBCE000867
:102770002F280CD939280CD95E2806D97A2808D9EF
:102780005A288CBF0020012070474028F8D800202C
:1027900070470120704770B50446FEF7A3FE20463F
:1027A000FFF7FBFA27281ED022281CD02046FFF76F
:1027B000F4FA0546FFF7DCFF98B1002629462046CB
:1027C0006676FEF79FFE2046FFF7E7FA0546FFF71D
:1027D000CFFF0028F2D16068B0FA80F04009800095
:1027E00000E0032070BD2046FFF72AFDFAE7000055
:1027F0002DE9F04F85B005460E461746FFF7E0FA83
:102800000446002866D12846FFF7C7FA662800F07C
:1028100005810CD8272800F0E9805B2810D02228F9
:1028200000F0E48031462846FFF722FBD2E074280E
:1028300000F0EB807B2853D06E28F3D17A49E9E091
:102840004FF0FF3333604023FFB23371002F00F0AD
:10285000C9806C762846FFF7B3FA0446002839D1C0
:102860005D212846FFF77DFCA0BB4FF6FF78013FB6
:10287000D5F81C9002A84946FFF702FADDF808A037
:10288000BAF1000F01D1042424E07188BDF80C20B6
:10289000414523D0D9F82C00FEF776FCC280728027
:1028A00051463A462846FFF7A3FF002840F09280A1
:1028B0002846FFF785FA002840F08C805D212846E5
:1028C000FFF74FFC30B92C212846FFF74AFC0028BF
:1028D000CED10324204605B0BDE8F08F3280DEE77C
:1028E0004FF0FF3333602023FFB23371002F79D0D4
:1028F0006C762846FFF764FA04460028EAD17D2169
:102900002846FFF72EFC0028E4D12846FFF743FFB6
:1029100000285FD12846FFF753FA8046002863D18C
:102920003A212846FFF71DFC0028D2D0D5E9013214
:10293000134483F80880D5F81C9069684B46083129
:102940003046AA68FEF783FC49468046002846D1F7
:102950006846FFF795F9DDF800A0BAF1000F92D0B4
:10296000494602A8FFF78CF9DDF80880B8F1000F9E
:1029700089D04FF6FF73BDF80C20BDF804B0AAF85B
:1029800006207188994227D0D9F82C00FEF7FCFB6D
:10299000A0F806B0514628467280FFF796F84146E7
:1029A00028467A1EFFF724FFA0B92846FFF708FA49
:1029B00080B97D212846FFF7D4FB00288AD12C213D
:1029C0002846FFF7CEFB002883D02846FFF7F8F90A
:1029D00000289AD004467DE7A6F800B0DAE7FEF7B3
:1029E000A8FDDCE7052475E7044673E72846FEF7F3
:1029F00079FD2846FFF724FC044600287FF46AAFDF
:102A000031462846FFF761F864E706233371012356
:102A1000064933702846FFF7F1F9DBE7062304493E
:102A200033713470F6E700BFBBCE0008C0CE00089B
:102A3000C5CE000870B5054698B00E688C68FFF7E3
:102A40000EF8002334444FF00A02684605F13801BD
:102A5000CDE90464CDE9013300958DF80C308DF893
:102A600019300795FFF7C4FE044640B99DF81830A9
:102A70002BB195F83C3013F0080F18BF03240198D0
:102A800018B1009B1968FEF7B4FB204618B070BD62
:102A900037B52324C22223460094C3211C4808F0E2
:102AA000B9FD234600941E221F211A4808F0B2FDEA
:102AB000F8221749184802F026F8002301211A4687
:102AC000164802F0B5FE164802F0B6F94FF480241D
:102AD00000224FF6FF70134B134D03F10C01D96226
:102AE00012491A719A609886D9631D601C63104B55
:102AF0009886D9630F4810491A719A6003F10C0245
:102B0000C3E90B241D6003B0BDE8304009F0F9B9FA
:102B1000F0050020D8040020A8040020380400207C
:102B200060030020900200201C0000200000FFFF36
:102B30005002002044020020B3CE0008F7B509F08F
:102B4000F9FC044609F0F6FC031BB3F57A7F3CD38D
:102B5000224B234C1B78234F234D8BB123782BB969
:102B6000012322492248237008F0FCFE1B4802F092
:102B70000FFAC7E90001194802F02EFAC5E9000171
:102B800006261C491A4808F0D5FE0096D7E900230E
:102B9000174809F0A3F81849154808F0CBFE00962D
:102BA000D5E90023124809F0A2F823789BB913490C
:102BB0000F4803B0BDE8F04008F0D4BE104802F062
:102BC00009FCC1B2054802F0AFFB0D4802F019FC48
:102BD0000028F3DCB6E703B0F0BD00BF60030020BF
:102BE000490300205803002050030020CBCE0008EA
:102BF000D8040020DFCE0008EBCE0008F3CE00089A
:102C00003804002070B50D460D49044609F079F9E5
:102C100009F090FC064609F08DFC831BAB4208D3FB
:102C2000204670BD074806F0F9FFC1B2204609F002
:102C300026FA044806F0ECFF0028F3D1EBE700BFCA
:102C4000B3CE00087C0D002030B55D495D488BB0E7
:102C5000FEF702FE5C4806F0DBFF00283DD15B4931
:102C6000594808F093FE09F065FC5949054601A84A
:102C700009F047F909F05EFC41F28732431B9342A9
:102C800036D901A809F0EAFA524907A809F039F93A
:102C900001A907A809F011FA01464A48FEF7C0FD4C
:102CA00007A809F0ECF84C4907A809F02AF907A988
:102CB00001A809F08EFA044607A809F0E0F8611CA3
:102CC0003ED146493F48FEF7C7FD4FF0FF3401A80B
:102CD00009F0D5F820460BB030BD3B4806F09EFF0A
:102CE000B8E7394806F09AFFC1B201A809F0C7F960
:102CF000354806F08DFF0028F3D1394904A809F0C2
:102D000000F904A901A809F064FA013016D1354987
:102D100007A809F0F6F807A901A809F05AFA441C17
:102D200007A818BF012409F0AAF804A809F0A7F819
:102D3000002CA6D1642009F0FFFB9BE70124F4E7F7
:102D400022462C2101A809F024FA451C04462A46F3
:102D50002C2101A809F01DFA0134034601D0421CC0
:102D600001D12149AEE72A4601A907A809F050FA86
:102D700007A809F09BFA044607A809F080F81B4948
:102D800007A809F0BEF80A22214604A809F01BF999
:102D900004A907A809F091F9022C96BF144B154914
:102DA00053F8241009F095F901460648FEF738FD5E
:102DB00004A809F064F807A809F061F887E700BFE4
:102DC0002BCF000844CF00087C0D00204BCF00081B
:102DD000B3CE00085ECF000864CF00086CCF0008B7
:102DE00061D6000858CF00088ECF000817D8000819
:102DF00084DD000821CF000830B546498DB0464833
:102E0000FEF72AFD4FF4FA6244494548FEF7ACFD4F
:102E1000444906A809F075F806A909A809F0B0F810
:102E2000414909A809F055F9404909F052F901460C
:102E3000684609F0A5F809A809F021F806A809F0E4
:102E40001EF84FF4FA6235490098FEF78DFD43F6FF
:102E5000982232493648FEF787FD044660B9354965
:102E60002D48FEF7F9FC684609F009F820460DB038
:102E700030BD314806F0D2FE2F4806F0C9FE0028CA
:102E8000F7D12E492C4808F081FD4FF4FA6009F083
:102E900053FB4FF4FA6103A8FFF7B4FE284909A8D1
:102EA00009F02FF803A909A809F007F901461A4803
:102EB000FEF7B6FC09A808F0E2FF224906A809F0CF
:102EC00020F806A903A809F084F901301AD11E4997
:102ED00009A809F016F809A903A809F07AF9431C12
:102EE0005D4209A85D4108F0CAFF06A808F0C7FFC7
:102EF00055B116490848FEF7AFFC002403A808F0B6
:102F0000BEFFB0E72546F0E711490348FEF7A4FCF1
:102F1000F4E700BF9ACF000844CF000861D600084C
:102F2000ACCF0008CACF0008B1DE000819D20008F3
:102F3000DFCF0008ECCF00087C0D00204BCF00084D
:102F4000F8CF000806D0000864CF00080ED00008B3
:102F500023D00008F0B561498BB0614808F002FD4C
:102F60004FF47A7009F0E8FA40F6B8325D495E48ED
:102F7000FEF7FAFC044630B95C4959480BB0BDE88D
:102F8000F04008F0EFBC4FF4FA7009F0D5FA4FF4B6
:102F90007A7254495648FEF7E7FC4FF4FA7009F08C
:102FA000CBFA54494E4808F0DDFC09F0C3FA064656
:102FB00009F0C0FA4EF65F22831B934201D94E49B5
:102FC000DBE74E494E4808F0E1FC4FF47A7009F017
:102FD000B3FA4C4901A808F094FF09F0ABFA40F2AB
:102FE000DB57054609F0A6FA431BBB4259D94649AF
:102FF0003B4808F09FFC01A9394808F0BDFC434953
:1030000004A808F07EFF04A901A809F0E2F800284E
:103010004DDA3F4907A808F074FF07A901A809F095
:10302000D8F8C54307A8ED0F08F029FF04A808F059
:1030300026FF002D3DD001A808F021FF354930487A
:1030400008F0A4FC4FF4FA7009F076FA2D4907A8AD
:1030500008F057FF09F06EFA044609F06BFA031BFB
:10306000B3F57A7F34D32C491D4808F063FC07A9D7
:103070001B4808F081FC4FF4FA7009F05DFAFFF785
:10308000BBFE2649164808F06DFC07A808F0F7FEBD
:103090000BB0F0BD1A4806F0C1FDC1B201A808F09E
:1030A000EEFF174806F0B4FD0028F3D19AE7254655
:1030B000BCE74FF4FA6009F03FFA01A808F0DFFE20
:1030C00076E70F4806F0AAFDC1B207A808F0D7FFBF
:1030D0000B4806F09DFD0028F3D1BEE734D0000870
:1030E000D804002061D600084FD0000852D0000854
:1030F00068D000086DD00008B7D0000897D000084D
:103100007C0D0020B3CE0008A0D00008BBD1000881
:10311000ADD00008B0D00008D9D00008F0D0000829
:1031200070B5584958488CB0FEF796FB574806F0E2
:103130006FFD0446002838D15549544808F026FC54
:1031400009F0F8F953490646684608F0DAFE09F036
:10315000F1F941F28732831B934231D9684609F075
:103160007DF84D4909A808F0CCFE694609A808F089
:10317000A4FF01464448FEF753FB09A808F07FFE70
:10318000444903A808F0BDFE029BA34243DD21464B
:10319000684608F0E4FFA0F13003092B014637D858
:1031A00003A808F06CFF0134EEE7384806F036FD5E
:1031B000BCE7364806F032FDC1B2684608F05FFF52
:1031C000324806F025FD0028F3D1344906A808F05E
:1031D00098FE684606A908F0FCFF013016D1304978
:1031E00009A808F08EFE684609A908F0F2FF451C00
:1031F00009A818BF012508F042FE06A808F03FFE06
:10320000002DABD1642009F097F9A0E70125F4E780
:10321000059B0D2B09D9059B0E3B022B0CD921498F
:103220001948FEF719FB002423E0002BBBD01949F5
:1032300003A808F0B7FEB6E7002314221A4903A832
:1032400008F08FFF194909A808F05BFE164906A887
:1032500008F057FE06A909A808F02FFF01460A4802
:10326000FEF7DEFA06A808F00AFE09A808F007FE35
:10327000012403A808F003FE684608F000FE20467B
:103280000CB070BD0AD1000853DA00087C0D002094
:1032900026D10008B3CE00085ECF000861D6000832
:1032A00058CF00082DD10008250300207EDA000841
:1032B0002DE9F04107460C4690B08F490AA81E46FA
:1032C000154608F01EFE0AA90DA808F059FE394659
:1032D0000DA808F0FEFE894908F0FBFEA16808F081
:1032E0000CFF874908F0F5FE01468648FEF798FA7C
:1032F0000DA808F0C4FD0AA808F0C1FD4FF47A72C9
:1033000081498248FEF730FBC82009F015F94FF4D7
:10331000FA627D497E48FEF727FBF0B97D4979487E
:10332000FEF79AFA4FF47A7277497848FEF71CFB59
:103330004FF4FA7009F000F94FF4FA6272497448D8
:10334000FEF712FB48B974496E48FEF785FA4FF054
:10335000FF34204610B0BDE8F0814FF47A726A491C
:103360006E48FEF701FB6E490AA808F0CAFD0AA9DB
:103370000DA808F005FE6B490DA808F0AAFE394615
:1033800008F0A7FE684908F0A4FE014601A808F06D
:10339000F7FD0DA808F073FD0AA808F070FD4FF4C2
:1033A000FA6259490198FEF7DFFA4FF47A725649EA
:1033B0005E48FEF7D9FA002E3AD03378002B37D08A
:1033C0005B490AA808F09DFD0AA90DA808F0D8FDE0
:1033D00031460DA808F07DFE534908F07AFE0146FB
:1033E00007A808F0CDFD0DA808F049FD0AA808F0CF
:1033F00046FD50490DA808F084FD31460AA808F0A2
:1034000080FD0AA90DA808F058FE01463D48FEF7C8
:1034100007FA0AA808F033FD0DA808F030FD4FF4B4
:103420007A7239490798FEF79FFA07A808F027FD36
:10343000A368002B45D040490AA808F062FD0AA9FC
:103440000DA808F09DFDA1680DA808F056FE3B49A7
:1034500008F03FFE014607A808F092FD0DA808F00D
:103460000EFD0AA808F00BFD40F6B8323449079863
:10347000FEF77AFA90B933492248FEF7EDF94FF496
:103480007A7221492148FEF76FFA07A808F0F7FC85
:103490004FF0FF3401A808F0F2FC5AE721462A4811
:1034A00008F04CFA40F2DC5009F046F8264806F0E5
:1034B000AFFBE0B913482549FEF7CEF907A808F09D
:1034C000DEFC2349204808F061FA4FF4FA7009F055
:1034D00033F809F02FF847F22F57044609F02AF87D
:1034E000031BBB4236D900264FF0FF3487E0164855
:1034F00006F094FBDAE700BF4FD10008C0D2000805
:1035000055D1000859D1000861D6000862D10008E1
:103510006ED100087AD1000894D10008AAD1000821
:10352000BED100089ADE000819D20008D9D10008DF
:1035300002D200081BD2000824D2000831D20008B1
:1035400038D2000841D200087C0D002065D2000866
:1035500073D20008964806F05BFB0028BED00A2212
:1035600093490AA808F010FC0AA808F077FE0C9B03
:1035700073B190490DA808F0C4FC0AA90DA808F081
:103580009CFD01468C48FEF74BF90DA808F077FC2E
:103590008A490DA808F0B5FC0DA90AA808F0CDFDD0
:1035A00006460DA808F06BFC002E00F083802C214D
:1035B0000AA808F0FCFD441C22462C210AA808F0A9
:1035C000E8FD224603460AA906460DA808F020FE9B
:1035D0000DA808F06BFE04460DA808F050FC721C04
:1035E0000C9B0AA90DA808F013FE0DA808F05EFEBA
:1035F00006460DA808F043FC0AA808F040FC7049F4
:103600000AA808F07EFC0A22214607A808F0DBFC85
:1036100007A90AA808F051FD6A4908F05AFD0746B3
:103620000A2231460DA808F0CEFC0DA9384608F054
:1036300044FD01466048FEF7F3F80DA808F01FFCB2
:1036400007A808F01CFC0AA808F019FC002D00F0DF
:103650009F80002E40F39C805B490DA808F051FC30
:103660000A2231460AA808F0AEFC0AA90DA808F003
:1036700024FD014604A808F083FC0AA808F0FFFB1B
:103680000DA808F0FCFB4A4806F0C2FAB0B904A93C
:10369000474808F071F94D4907A808F032FC08F0D6
:1036A00049FF42F20F78064608F044FF831B43456A
:1036B0000FD921E00AA808F0E2FB0FE73C4806F02A
:1036C000ADFAE0E73A4806F0A9FAC1B207A808F057
:1036D000D6FC374806F09CFA0028F3D13C490DA8E7
:1036E00008F00FFC0DA907A808F073FD07460DA808
:1036F00008F0C5FB0137D7D036490DA808F001FC0A
:103700000A2209990AA808F070FC0AA90DA808F075
:10371000D4FC314908F0DDFC07A908F0CEFC0146D5
:103720002548FEF77DF80AA808F0A9FB0DA808F0C7
:10373000A6FB7B2107A808F03AFD06467D2107A8D5
:1037400008F061FD002E2ADB864228DA431C32464F
:1037500007A90DA808F05CFD0DA9284608F01AFC81
:103760000DA808F08CFB1D490DA808F0CAFB2946DE
:103770000DA808F0A2FC01460F48FEF751F80DA86D
:1037800008F07DFB07A808F07AFB04A808F077FB97
:103790004FF47A720E491248FEF7E6F87AE607A966
:1037A000284608F0DEFB0F490348FEF755F8E9E725
:1037B0007C0D002083D2000859D100088AD200086D
:1037C00097D200089FD20008A9D20008B3CE000803
:1037D00061D60008B8D20008C3D20008C9D20008D8
:1037E00062D10008D0D20008F0B5854E9FB01422F7
:1037F00031461020FEF76EF80EAC0546C0B1814987
:10380000204608F07EFB31460AA808F07AFB0AA998
:10381000204608F052FC01467B48FEF701F80AA852
:1038200008F02DFB204608F02AFB28461FB0F0BD0B
:103830007649204608F065FB75490AA808F061FB47
:103840000AA9204608F039FC01466F48FDF7E8FF59
:103850000AA808F014FB204608F011FB6D490AA8DD
:1038600008F04FFB0AA9204608F08AFB6849204669
:1038700008F02FFC014601A808F082FB204608F062
:10388000FEFA0AA808F0FBFA634904A808F039FB1D
:10389000019F6149204608F034FB2B4604AA2146CB
:1038A0003846FFF705FD0746204608F0E8FA5B4971
:1038B000204608F026FB0A2239460AA808F083FBB6
:1038C0000AA9204608F0F9FB01464F48FDF7A8FF7A
:1038D0000AA808F0D4FA204608F0D1FAA7F1C803E4
:1038E000012B1DD94E49204608F00BFB0A22394610
:1038F0000AA808F068FB0AA9204608F0DEFB01468A
:103900004148FDF78DFF0AA808F0B9FA204608F0F3
:10391000B6FA04A808F0B3FA01A808F0B0FA84E7F0
:10392000069B23B93F493848FDF796FFF1E73E4B28
:1039300020460E9311AB19934FF480231A934FF640
:10394000FF73ADF86C30394B04A98DF83C501095DD
:103950001D93FFF76FF8C7B2DFB135490AA808F029
:10396000D0FA344B07A853F8271008F0CAFA07A971
:103970000AA808F0A2FB01462348FDF751FF07A85B
:1039800008F07DFA0AA808F07AFA2046FEF77BF8DC
:10399000BFE7294B01270B930C230AA80A940C9329
:1039A0008DF83470FEF7FAFB014608B1037823B9AD
:1039B00022491548FDF750FFE7E71322304608F08B
:1039C00090FF1F490AA8F57408F09BFA314607A832
:1039D00008F097FA07A90AA808F06FFB01460A4801
:1039E000FDF71EFF07A808F04AFA0AA808F047FAF0
:1039F000142231461020FDF73DFF3D46C5E700BFCC
:103A000011030020F4D2000809D300080ED30008E7
:103A10002503002035D30008B3CE000859D3000891
:103A200074D3000883D300081C0000200000FFFFAF
:103A300059D800080400002099D30008A6D3000834
:103A4000C2D300082DE9F04F7C49B1B07C48FDF7A6
:103A500003FF13AA1B927B4A4FF000080125219215
:103A60004FF4802A04224FF6FF79774B20ACDFF821
:103A7000DCB110AF20467649CDE91F372292CDF850
:103A800040B08DF84480CDF84880CDF870A0ADF8F6
:103A900074908DF88C50FEF7EAFA6E4A2046219217
:103AA0000C226D49229220978DF88C50FEF7DFFA98
:103AB0006A4903A808F025FA1EAACDE9012739466C
:103AC00003AA0198FEF7F2FD6549204608F019FAAD
:103AD00003A9204608F0F1FA01465948FDF7A0FE77
:103AE000204608F0CCF95D4906A808F00AFA4346DA
:103AF00006AA03A95B48FFF7DBFB06465A492046A6
:103B000008F0FFF90A2231460CA808F05CFA0CA96B
:103B1000204608F0D2FA01464948FDF781FE0CA87C
:103B200008F0ADF9C83E204608F0A9F9AE4211D917
:103B30004E494348FDF790FE454606A808F09FF918
:103B400003A808F09CF93846FDF79DFF284631B0E0
:103B5000BDE8F08F23ABCDE92B3A3B4B204606A9BD
:103B60008DF88480CDF88880CDF880B0ADF8B49021
:103B70002F93FEF75FFF5FFA80F80646B8F1000F5B
:103B80001CD03B490CA808F0BCF93A4B09A853F8E3
:103B9000281008F0B6F909A90CA808F08EFA014619
:103BA0002748FDF73DFE09A808F069F90CA808F0C0
:103BB00066F900252046FDF766FFBEE72E4B0CA8F0
:103BC0000D9308230C940E938DF83C50FEF7E6FA03
:103BD000014608B1037823B928491948FDF73CFE8E
:103BE000E7E7DFF89C803F22404608F07AFE25494F
:103BF0000CA888F83F6008F084F9414609A808F04D
:103C000080F909A90CA808F058FA01460C48FDF7FC
:103C100007FE09A808F033F90CA808F030F908F0FD
:103C200089FC194B00F5491000F5D5501860174B69
:103C3000174903481D70FDF70FFEBBE7CBD3000803
:103C400009D30008E2D300080000FFFF1C00002099
:103C50002503002099D3000811030020B3CE0008EB
:103C6000E7D30008EED300080CD4000815D40008F0
:103C700059D800080400002028D4000831D40008D6
:103C8000D1020020DEDA00083C030020D002002030
:103C900049D400082DE9F041DFF82881A0B098F858
:103CA000003013B1484E337833B94849484820B002
:103CB000BDE8F041FDF7D0BD46494548FDF7CCFDD4
:103CC000454B0024109313AB1B934FF480231C939C
:103CD0004FF6FF73ADF87430404B01271F93404BF4
:103CE00010AD0D9304230CA83E490E938DF83C7043
:103CF0008DF8444012940C95FEF7B9F93A4B0CA894
:103D00000D930C2339490E938DF83C700C95FEF7FA
:103D1000AEF9374903A808F0F4F81EAB184603AA19
:103D20002946CDE90135FEF7C1FC32490CA808F05F
:103D3000E8F80CA909A808F023F9314609A808F009
:103D4000C8F9014606A808F01BF909A808F097F879
:103D50000CA808F094F8069B224603A92648FFF712
:103D6000A7FA0746254909A808F0CBF80A223946E0
:103D70000CA808F028F90CA909A808F09EF901463A
:103D80001348FDF74DFD0CA808F079F809A808F0D4
:103D900076F840222146304608F07CFD184B194940
:103DA0000B481C6088F80040FDF756FD06A808F097
:103DB00066F803A808F063F82846FDF764FE20B013
:103DC000BDE8F081D0020020D102002068D40008B4
:103DD00087D400088CD400081C0000200000FFFFDE
:103DE000E2D300082503002099D300081103002026
:103DF000B3CE0008A7D40008B5D400080CD400083E
:103E00003C030020D1D400087FB50446254968460C
:103E100008F077F8694603A808F0B2F8214603A82D
:103E200008F057F9204908F054F901461F48FDF7FA
:103E3000F7FC03A808F023F8684608F020F8FFF71D
:103E400029FF1B491948FDF707FD00210C2008F048
:103E500037FB4FF4FA6008F06FFB16491348FDF783
:103E6000FBFC01210C2008F02BFB4FF47A7008F0CA
:103E700063FB11490D48FDF7EFFC104807F0ABFC60
:103E80004FF4FA7008F058FBBFF34F8F0C490D4BFD
:103E9000CA6802F4E0621343CB60BFF34F8F00BFE8
:103EA000FDE700BFE1D40008A2D40008F6D4000862
:103EB000FCD4000812D500082BD50008D804002037
:103EC00000ED00E00400FA0510B57E497E4886B09A
:103ED000FDF7C2FCFEF7B8FE0128044606D17B4977
:103EE0007948FDF7B9FC012006B010BD784903A858
:103EF00008F007F80A222146684608F064F8694687
:103F000003A808F0DAF8734908F0E3F801466E48B0
:103F1000FDF786FC684607F0B2FF03A807F0AFFF85
:103F200041F288326C496D48FDF71EFD4FF4FA608E
:103F300008F002FB08F0FEFA044608F0FBFA47F22C
:103F40002F53001B984204D965495F48FDF784FC54
:103F500033E06449644807F019FD4FF4FA7008F043
:103F6000EBFA6249604807F075FF00BB604903A89F
:103F700007F0C7FF08F0DEFA4FF47A71001B0A223F
:103F8000B0FBF1F1684608F042F8694603A808F072
:103F900094F8584908F09DF801464B48FDF740FC5D
:103FA000684607F06CFF03A807F069FFC5E75249B0
:103FB0004D4807F04FFF0028D8D0FEF71DFF0446FC
:103FC00008B14E498CE74E493F48FDF745FC4FF498
:103FD000FA6241494B48FDF7C7FC21460C2008F026
:103FE0006FFA4FF4FA6008F0A7FA01210C2008F0EC
:103FF00067FA44F6206008F09FFA4FF416513A48E9
:1040000005F07CFE4FF4FA7008F096FA41F288321F
:1040100031493D48FDF7A8FC30B92B483B49FDF735
:104020001BFC3B48FFF7F0FE4FF47A722A493948EF
:10403000FDF79AFC08F07EFA044608F07BFA49F690
:104040003F43001B984201D93348EBE725492648F6
:1040500007F09CFC4FF4FA7008F06EFA23492248EE
:1040600007F0F8FE00BB224903A807F04AFF08F05A
:1040700061FA4FF47A71001B0A22B0FBF1F1684635
:1040800007F0C5FF694603A808F017F8194908F0BA
:1040900020F801460C48FDF7C3FB684607F0EFFE29
:1040A00003A807F0ECFEC8E713490F4807F0D2FE5B
:1040B0000028D8D0FEF7A0FE08B91848B2E7184982
:1040C0000EE700BF40D5000861D5000866D500089E
:1040D00078D500088ED5000861D60008A5D500085F
:1040E0009ED6000897D000087C0D0020B2D50008AD
:1040F000B9D50008C8D50008BBD10008CBD5000849
:10410000DCD5000862D100084FD000080CD60008AA
:104110002ED6000868D000087FD6000864D60008B4
:1041200053D6000810B50D490D48FDF795FBFFF774
:10413000CBFEFFF759FB30B90A490948FDF78CFB64
:104140000024204610BDFFF77DFC044608B906494F
:10415000F3E706490248FDF77FFBF2E7C3D6000804
:1041600009D30008E1D60008F6D600080CD70008ED
:104170002DE9F04F0746A7B01149124807F0DAFBC6
:104180000A2239460F4807F042FC0F490D4807F054
:10419000E9FB4FF4FA7008F0CFF9FFF795FEFDF751
:1041A0001DFCC8B109490A48FDF756FBFFF7BAFFE5
:1041B00090B90849064827B0BDE8F04FFDF74CBB61
:1041C0002ED70008D804002041D7000846D70008A1
:1041D00070D7000877D70008FEF7B0FCB24800F0AF
:1041E000BDFD0646B04800F0C5FD0546AE4800F0EE
:1041F000CDFD314604463046FCF74CFF20B9002186
:104200003046FCF71FFF00B1002629462846FCF780
:1042100041FF002840F0C18100212846FCF712FF31
:1042200000B10025A84621462046FCF733FF0028B0
:1042300040F0B68100212046FCF704FF00B10024C5
:1042400025464FF001094FF0040A4FF0020B974941
:10425000974807F06FFB02223146954807F074FC3F
:104260009449934807F066FB032241469048924CDC
:1042700007F06AFC91498E4807F05CFB0222294650
:104280008B4807F066FC2046FDF7E9FB8C4B8D4917
:104290000EA80F930E94CDF840A08DF84490FDF732
:1042A000E6FE894B31460EA80F930E94CDF840B030
:1042B0008DF84490FDF7FAFE844B41460EA8CDE9F7
:1042C0000F3B0E948DF84490FDF7F0FE804B814932
:1042D0000F9303230EA810930E948DF84490FDF7CE
:1042E000B2FE7D4B7D490EA8CDE90F3A0E948DF8B4
:1042F0004490FDF7A8FE7A4B29460EA8CDE90F3B66
:104300000E948DF84490FDF7D1FE764B0EA8CDE9C2
:104310000F3A0E948DF84490FDF789FE054630B1B2
:104320002146FDF706F90C232B7100232B606E4B01
:104330000EA80F930223109300230E948DF844309F
:10434000FDF775FE054638B15B49FDF7F2F84FF011
:10435000FF332B6020232B71644B0EA81193032392
:1043600012930123CDE90F548DF84C30FDF7ACFECC
:10437000064640B15049FDF7DCF8002200233046E4
:104380000094FDF750FD5A4B0EA81193022312938F
:104390000123CDE90F548DF84C30FDF795FE05460D
:1043A00028B14549FDF7C5F80C232F602B71514901
:1043B000514807F0F7FD514B4F4A18462146CDE9C9
:1043C0000334FEF773F94E49394807F0B3FA4A4906
:1043D000374807F0D1FA4FF4FA7008F0ADF84949C0
:1043E0000BA807F08EFD0BA90EA807F0C9FD4649E2
:1043F0000EA807F06EFE014605A807F0C1FD0EA845
:1044000007F03DFD0BA807F03AFD3A4908A807F070
:1044100078FD059B38493D4808AAFEF749FFA0F101
:10442000C803012B044600F2E68039490EA807F0C4
:1044300068FD0A2221460BA807F0C5FD0BA90EA8AE
:1044400007F03BFE334907F044FE01463248FDF7D2
:10445000E7F90BA807F013FD0EA807F010FD0A9C62
:10446000002C00F0C6802D4D089E2846FDF7F7FA77
:10447000002334444FF00A0205F138010EA8CDE9BB
:104480001264CDE90F330E958DF844308DF851301C
:104490001595FEF7ADF90446002847D19DF8503038
:1044A000002B43D03CE000BFA80400209FD70008A9
:1044B000D8040020A9D7000890020020AED7000839
:1044C00053DA000825030020B3D70008B6D7000848
:1044D000B9D7000858030020BDD7000850030020BA
:1044E000C2D70008C5D70008CAD70008CDD7000832
:1044F000D1D70008B3CE000844020020C802002033
:10450000D4D70008A7D40008D102002068DE000834
:10451000E7D700081FCF000870D70008500200201E
:1045200095F83C3013F0080F18BF03240F9818B10A
:104530000E9B1968FCF75DFE002C3DD14F4B0EA879
:104540000F930B23109301230E958DF84430FDF744
:1045500014FE38B303791A1F012A01D9022B21D185
:104560000EA8FDF71BFE04464549464807F0E2F950
:104570002146444807F00AFA20464349FBF7C8FDA4
:10458000424C88B90121C42007F09AFF0123404919
:1045900023703C4807F0E6F918E04FF0000842E6C7
:1045A00000254EE63B4CDFE70021C42007F088FFE2
:1045B000002339492370ECE73849324807F0BAF94B
:1045C000374B304853F8241007F0E0F935492D48AF
:1045D00007F0C8F9002F4CD10121384600F026FC25
:1045E00008A807F04CFC05A807F049FC27B0BDE877
:1045F000F08F2D49CDE740F2911320F002029A424C
:104600001FD12A490EA807F07CFC0A2221460BA8DC
:1046100007F0D9FC0BA90EA807F04FFD244907F0BD
:1046200058FD01462348FDF7FBF80BA807F027FCCF
:104630000EA807F024FC00231F4A13601F4A1370C2
:10464000C4E71F490EA807F05CFC0A2221460BA80C
:1046500007F0B9FC0BA90EA807F02FFD014615487D
:10466000FDF7DEF80BA807F00AFC0EA807F007FC20
:10467000ACE7022FB4D100210846AFE7FDD7000810
:1046800009D80008D804002027D7000848030020D4
:104690001FD8000823D7000838D8000852D80008CF
:1046A00004000020E5D800086CD8000899D800085C
:1046B000B0D8000870D700083C030020D0020020CA
:1046C000D1D8000810B5062286B04FF4E1316C480D
:1046D00007F09AF84FF4FA7007F02EFF694968481E
:1046E00007F040F96849664807F03CF967496448B3
:1046F00007F038F96649624807F034F90121C4200F
:1047000007F080FE0021C42007F0DAFE61495C4812
:1047100007F028F906224FF416515F4807F074F8A5
:104720005E49574807F01EF94FF416515C4801F0F6
:104730006DF95C49524807F015F9002000F03EFB86
:104740000128044603D158494D4807F00BF90121CF
:104750000C2007F057FE5549494807F003F900219E
:104760000C2007F0ADFE4FF4FA7007F0E5FE0121D2
:104770000C2007F0A5FE47F2305007F0DDFE4FF4A5
:1047800016514B4805F0BAFA4FF47A7007F0D4FE90
:10479000484B1B784BB9FEF7C3FC30B94648474934
:1047A000FDF75AF84648FFF72FFB464903A807F0E4
:1047B000A8FB4049684607F0A4FB694603A807F038
:1047C0007CFC01463C48FDF72BF8684607F057FB98
:1047D00003A807F054FBFEF7BDFB3B493648FDF745
:1047E0003BF8FFF79FFC002832D138493248FDF7EB
:1047F00033F8012C0ED13649214807F0B3F80220D6
:10480000FFF7B6FC0021084600F010FB31491C48B8
:1048100007F0A8F8FF22304B304919481A7007F00A
:10482000A1F82F49164807F09DF82E49144807F0C3
:1048300099F82D49124807F095F82C49104807F0CF
:1048400091F813490E4806B0BDE8104007F08AB849
:10485000274903A807F055FB6846264907F051FB96
:10486000694603A807F029FC01461348FCF7D8FF66
:10487000684607F004FB03A807F001FBB9E700BF97
:10488000D8040020FED8000828D9000851D9000813
:104890007DD90008A7D90008F0050020B8D9000884
:1048A00038040020D3D90008EDD900081FDA000829
:1048B0007C0D00202503002058DA00083DDA0008AE
:1048C0005EDA000877DA000885DA00089FDA000867
:1048D000E9DA00081ADB0008000000203CDB0008D1
:1048E00052DB00086BDB000884DB00089EDB00085D
:1048F000D2DA0008D10200202DE9F04107F01AFEBB
:104900000446544800F07DFD002857DC524B1B78CC
:10491000A3B1524B1A782AB90122514951481A7051
:1049200007F020F84C4800F033FB4F4BC3E900017F
:10493000494800F051FB4D4BC3E900014C4800F0E1
:1049400019FA4C4D0146804695F90060FCF7A2FB30
:10495000002847D100214046FCF774FB0746002899
:1049600040D14FF07C514046FCF78AFB002839D0FB
:10497000414B1C60731C29D13846404B2F701C6082
:10498000FFF7F6FB4EF65F213D4A1368E31A8B42B0
:1049900006D995F900001460022801D0FFF7E8FB62
:1049A000384A39491368E31A8B424FD3374838499C
:1049B0001460FCF751FF3748FFF726FA254800F04E
:1049C00009FDC1B2244800F0AFFC9AE7002ED9D10E
:1049D00047F22F52294B1B68E31A9342D2D9012088
:1049E0002870CDE7012E20D1234F2B4B3E68A61B0C
:1049F0009E42C7D929491B4806F09CFF4FF47A71A3
:104A00000A22B6FBF1F1174807F003F824491548CC
:104A100006F0A8FF02202870FFF7AAFBFF232B70E7
:104A20000023164A3B601360ACE7002EAAD1124B5C
:104A3000194A1B68E31A9342A4D91A49094806F097
:104A400091FFFF232B700D4B1E609BE7BDE8F041EB
:104A500007F031BC38040020600300204903002027
:104A6000B6DB0008D80400205803002050030020C3
:104A7000A8040020000000203C020020400200208A
:104A8000440300204003002080EE36005ADC00087A
:104A900028DC00085FDC0008DF930400D2DB00089C
:104AA000DCDB000801DC000808B5084807F0E7F97E
:104AB0000748FCF7E8FF0748FCF7E5FF064800F069
:104AC00085FDBDE80840054800F00AB84402002012
:104AD000500200209002002038040020A80400208A
:104AE000704710B55C1EE4B2F82C28BFF8230271A1
:104AF00043714FF0FF324FF0FF33C0E90A23002328
:104B00000160837110BD70B50C46054616462046FF
:104B100006224FF4165106F077FE2846334600224F
:104B20002146FFF7DEFF70BD4FF6FF7010B5074C52
:104B30000A44914200D110BD11F8013B4340DBB261
:104B400034F8133083EA1020F3E700BFBADE000820
:104B5000022A38B50C4615460ED9023A92B2FFF732
:104B6000E3FF621912F8011C12F8023C43EA012328
:104B70001B1A5842584138BD0020FCE72DE9F0418E
:104B800005460E46904607F0D5FC002407464445EE
:104B900014DA07F0CFFCC01B63280FD8286803681D
:104BA0001B699847002806DD286803685B699847F9
:104BB000631C3055DCB207F07EFBE8E72246314645
:104BC0002846FFF7C5FF0028A87114BF2046002023
:104BD000BDE8F08138B51546023A0C4692B2FFF7AF
:104BE000A3FF621902F8020C000A02F8010C38BD9A
:104BF0007FB50446BDF8240052BA461EF62E88BF83
:104C000060795BBA8DF800008DF801102046694686
:104C1000ADF8022008229DF82050ADF80430FFF7CF
:104C2000D9FF20680822036869465B6898479DB1F0
:104C3000082220460DEB0201FFF7A0FF68B16B468A
:104C4000082202A913F8014B11F8010B844206D186
:104C5000013A12F0FF02F5D1012004B070BD00202E
:104C6000FBE7000073B5044607F064FCA36AC01AB2
:104C7000C82865D907F05EFC00264FF6FF73334D58
:104C8000C4E90A0632460421CDE9006320460A231E
:104C9000FFF7AEFF192229462046FFF76FFF1928BC
:104CA00051D1B5F8030040BA80B2FBF785FB002272
:104CB000274BFBF725FDFBF7C9FEA060D5F80500E3
:104CC00040BAFBF779FB0022224BFBF719FDFBF7FB
:104CD000BDFEE060D5F8090040BAFBF76DFB00228D
:104CE0001B4BFBF70DFDFBF7B1FE2061D5F80D0066
:104CF00040BAFBF761FB0022164BFBF701FDFBF707
:104D0000A5FE6061B5F8110040BA80B2FBF754FB14
:104D100000220F4BFBF7F4FCFBF798FEA061B5F8FF
:104D2000130040BA80B2FBF747FB0B4B0022FBF7A6
:104D3000E7FCFBF78BFEB5F81530E0615BBA238426
:104D4000012002B070BD3046FBE700BF080700201D
:104D50000000244000408F400000594010B5044638
:104D6000FFF780FF08B1A06810BD0148FCE700BF55
:104D70000000C07F10B50446FFF774FF08B1E0687B
:104D800010BD0148FCE700BF0000C07F10B504461D
:104D9000FFF768FF08B1206910BD0148FCE700BFBC
:104DA0000000C07F08B54FF480620249024807F056
:104DB0001BFE08BD00FC01082807002010B50446B2
:104DC000FFF7F0FF014B185D10BD00BF2807002062
:104DD000002370B586B0CDE9013301230F4C059354
:104DE000CDE9033400F0A6FFB0B940F215120C4B28
:104DF00001A9DA6002A801F047F858B9094D0A4E36
:104E00002146F5E80223032000F0DAFF10B9083448
:104E1000B442F5D100F0A0FF06B070BD00FC01085F
:104E2000002002402807002000000208014B19540E
:104E3000FFF7CEBF2807002000224FF40071C0E921
:104E40000022C0E90222C0E90422C0E90622C0E92A
:104E50000822C0E90A22C0E90E22C0E91222C0E9F4
:104E60002E12C0E930220263826502668266026702
:104E70008267C0F88020C0F88820C0F89020C0F871
:104E80009820C0F8A020C0F8A820C0E93222C0E9CC
:104E900034227047A1F14103052B02D8A1F137005C
:104EA0007047A1F16103052B94BFA1F15700A1F157
:104EB0003000704738B5044605782D2D08BF013401
:104EC000204607F06BFB64235843224614F8013B4D
:104ED000A3F130010929F8D92E2B0BD15378303B9F
:104EE000092B07D80A2101FB03009378303B092BDB
:104EF00098BFC0182D2D08BF404238BD38B50D46AB
:104F0000044607F04BFB6423B0FBF3F203FB1203F0
:104F1000204611492A804B4302780146A2F1300411
:104F2000092C00F10100F7D92E2A0BD10A240A48D6
:104F300003E0B0FBF4F000FB023311F8012F303A2C
:104F4000092AF6D9032203EB83030133B3FBF2F3FF
:104F50006B6000232B7238BD80969800C36910B532
:104F60004360036A0446836090F824300373836AC5
:104F70000361C36A436190F83030037607F0DAFAD0
:104F800040F201136063238010BD000000000000A8
:104F90000023D0B5044643708068FBF70DFA0CA3DC
:104FA000D3E90023FBF7ACFB0646A0880F46FBF7CE
:104FB00013FA0B46024639463046FBF7C1F8237B0D
:104FC00013B101F100431946D0BD00BFAFF300801B
:104FD0000000000065CDCD410023D0B504464370EC
:104FE0004069FBF7E9F90CA3D3E90023FBF788FB41
:104FF0000646208A0F46FBF7EFF90B460246394674
:105000003046FBF79DF8237E13B101F100431946AA
:10501000D0BD00BFAFF300800000000065CDCD41E2
:10502000836810B54360044607F084FA40F2011328
:10503000E060238010BD836810B54360044607F02C
:1050400079FA40F20113E060238010BD10B50446E8
:105050000846FFF72FFFA06010BD10B504460846B4
:1050600007F09CFAA06010BDC36810B583600446C9
:1050700007F060FA40F201136060238010BD10B5A4
:1050800004460846FFF716FFE06010BDC36810B580
:105090008360044607F04EFA40F2011360602380FB
:1050A00010BD10B50446084607F078FAE06010BD60
:1050B000014610B50446103007F08EFC07F03AFAAE
:1050C00040F201132062A38410BD102207F009BC36
:1050D00070B590F8A9600446002E65D090F8AA102B
:1050E000FFF7D8FE94F8AB1002462046FFF7D2FE39
:1050F00094F8A83000EB0210C0B283424DD1D4F82E
:10510000D4300133C4F8D43094F8BC3023B1D4F88F
:10511000CC300133C4F8CC3094F8B9301BB3012B38
:1051200015D104F13800FFF77BFF04F14800FFF7C9
:1051300082FF94F8BC3053B12046FFF70FFF04F113
:105140005800FFF791FF04F16800FFF78DFFD4F8D6
:10515000C45035B1D4F8C430A86A996AFAF7D8FFB8
:10516000B0B1304670BD04F14800FFF764FF94F819
:10517000BC3033B12046FFF7F1FE04F17800FFF7B1
:1051800073FF04F18800FFF781FF04F19800DCE76A
:105190002846FFF78DFF2D6BDBE7D4F8D0300133C5
:1051A000C4F8D0300026DCE790F8BA507DBB00F19F
:1051B000AA0630465849FAF7ABFF20B330465749A4
:1051C000FAF7A6FFF8B130465549FAF7A1FF38B112
:1051D00030465449FAF79CFF051E18BF01256D00A3
:1051E00084F8B950D4F8C050C4F8C450002DD9D0B8
:1051F0003146A86AFAF78CFF002806DBD2D00023DC
:10520000C4F8C430CEE70125EAE72D6BECE790F84F
:10521000B920022A23D090F8AA3003B345EA4215F8
:10522000013D282D1BD8DFE805F0153B42494C63B2
:10523000686E721A1A1A1A1A1A1A1A1A1A1A1A1AD4
:105240001A1A1A1A1A1A1A1A1A1A15343B42494CFF
:1052500053595D0000F1AA014830FFF7F7FED4F87A
:10526000C45004F1AA06002D9CD0D4F8C430A86A1A
:10527000996AFAF74DFF002894D1EA6A94F8BA3097
:105280009A428FDC03D131462846FFF71EFF2D6B73
:10529000E9E7A3F141004342434184F8BC30DEE733
:1052A00000F11C0104F1AA00FFF728FED7E7A3F1E3
:1052B00053014B424B4180F82430D0E700F12801E4
:1052C000F0E7A3F157025342534180F83030C6E76C
:1052D00000F1AA015830FFF7D2FEC0E700F1AA01A1
:1052E0006830F8E700F1AA013830FFF7B6FEB6E7FC
:1052F000302B94BF00230123CFE700F1AA018830AF
:10530000FFF7CFFEABE700F1AA019830E3E700F129
:10531000AA017830DFE700BFD1DC0008D7DC000845
:10532000DDDC0008E3DC000838B5D0F8C8302429FB
:1053300003F1010304460D46C0F8C8302AD090F8A6
:10534000BB301CD80A2901D00D292FD10E2B4FF0CC
:10535000000005D8234483F8AA002046FFF7B8FED2
:1053600094F8BA30013384F8BA30002384F8BB30A3
:10537000A5F12A035D425D4184F8A95038BD2A2970
:10538000E4D02C2912D190F8A82082F02C0280F8C9
:10539000A820DBE700230222A0F8A83080F8B9207B
:1053A000A0F8BA3080F8BC300020E7E70D2B9FBF93
:1053B0005A1C1B1984F8BB2083F8AA5094F8A93012
:1053C000002BF1D194F8A8305D4084F8A850EBE7A9
:1053D0000020704790F86A2090F869309A420DD00A
:1053E00090F86A30034493F8292090F86A3001332A
:1053F00003F03F0380F86A30104670474FF0FF30EB
:10540000704790F8693090F86A2003F14000801AE4
:10541000434203F03F0300F03F0058BF584270473B
:1054200072B6002380F8693080F86A3062B670473F
:1054300090F86A2090F869309A421DBF90F86A305F
:10544000C01890F829004FF0FF307047012A02D1B0
:10545000016000207047022A05D0032AF9D0002AF3
:10546000F7D10260F5E70B680360F2E703681847BD
:105470007FB5214D0C462B688B422FD01F4802F080
:1054800053FC1E48002C33D002F00EFE01214FF6D3
:10549000FE7204EB4403B0FBF3F6964220D81748A3
:1054A00002F07FFD00223146144802F029FE00225E
:1054B0001248114602F04AFE00230193104B694640
:1054C0000093104B0D4803930F4B029302F0D5FE4F
:1054D000029B43B9094802F010FD2C6004B070BD76
:1054E00040084900D7E70322694668469847F1E734
:1054F00002F029FDF1E700BF280B00204C0B002033
:105500000D5800086D5400084D54000890F82810FC
:10551000D0E907238907C3F30F234FF00101408A25
:105520004CBF5361136106F06DBF90F82830008ABC
:1055300013F0020F0CBF0221032106F063BF00002D
:1055400090F8283070B55B0704460E460ED50B4D1B
:105550002B6861B1834209D0FFF7E7FF4FF0FF32BC
:10556000074B1A600222074B1A602C6070BD834201
:10557000FCD1FFF7CBFF2E60F8E700BF400B002007
:1055800020000020380B002038B50D4D04462B6854
:10559000834213D10B4B19680029FCD194F82830B1
:1055A0005B0702D52046FFF7CBFF0021064B2046C4
:1055B00029601960FFF75CFF012038BD0020FCE77F
:1055C000480B0020440B0020400B002010B504467F
:1055D000024B0360FFF7D8FF204610BDC4E000086F
:1055E00010B50446FFF7F2FF2046702103F0CFFB11
:1055F000204610BDF8B50446144F3868A04222D0AA
:10560000134E3368002BFCD108B1FFF7BDFF012515
:105610004FF0FF320F4B20461D600F4B616A1A603E
:10562000FFF726FF94F828303C605B0703D40B4B50
:105630001C600120F8BD3368002BFAD129462046B2
:10564000FFF77EFFF5E70020F4E700BF480B0020DE
:10565000440B0020380B002020000020400B0020CD
:1056600070B5044690F82830184D43F0080380F8D0
:1056700028302B68002BFCD194F82820144B4900CB
:10568000920741F40071196048BFC9434FF000060A
:105690004FF0030248BF19600E4B20461E600E4BB0
:1056A000616A1A60FFF7E4FE94F828305B0703D5BF
:1056B00031462046FFF744FF94F82830012023F0BC
:1056C000080384F828302C6070BD00BF440B002014
:1056D000340B0020300B00203C0B0020184A38B55A
:1056E0001168034601390029116013DC154D296842
:1056F0004C1C09292C600EDCD3E907431248C3F384
:105700000F230168CD074CBF236163610323490860
:105710000160136038BD0121116090F82820150741
:1057200003D50022094B1A60F4E7192CF2DD520769
:10573000F7D5074A12688242F3D1FFF701FFF0E77D
:105740003C0B0020300B0020340B0020440B0020C9
:10575000480B00202A4A70B51368013B002B1360E8
:105760003EDC436981699B68264CDB4303EA1123D5
:105770009BB2B3FA83F3216890F82850B1F1FF3F50
:105780004FEA5313C5F340060AD19E4205BF0421D8
:1057900000230123116004BF1B4A236013601FE034
:1057A00007291EDD9E4216D090F8693090F86A10E5
:1057B000013303F03F0399421FBF134D90F8691066
:1057C0002D6809180BBF45F0010581F8295080F8B4
:1057D000285080F86930012313604FF0FF332360B5
:1057E00070BD094D9E42286801F101014FEA500049
:1057F00018BF40F08000032328602160CEE700BF7F
:10580000380B0020200000202C0B002008B5064B90
:105810001A6812B11868FFF79DFF044B1A6812B19D
:105820001868FFF75BFF08BD400B0020440B002009
:10583000F8B504460D4600204FF47A71EEB2C4E983
:1058400001016D49222E2160258262820DD86B49AB
:1058500051F82610C1F3031104293FD9606167494B
:1058600051F8261001F00F0106E005F0C001C02933
:1058700018D0002161610F21614F57F82110A161FB
:10588000D1B2222931D85D4850F82100C0F303106D
:10589000042875D90020E061584850F8210000F034
:1058A0000F0029E0C92EE4D8564905F03F0751F80A
:1058B0002770524951F82710C1F3031104290DD95B
:1058C000606105F0C001C029D5D14E4905F03F0007
:1058D00051F82000494951F82010C3E74A48222EC8
:1058E00050F821106161BAD9EBE702F0C000C0287E
:1058F00029D00020E0610F2057F82000A5EB020C12
:1059000020620020DCF1000747EB0C075B0043EA54
:10591000870394F8287003F00F0327F00F073B4329
:10592000222984F86900606284F8283084F86A00CB
:10593000E0662DD8314B53F82100C0F3031003F07B
:1059400029FAB0BBFEE7C929D3D82E4802F03F0C94
:1059500050F82CC0294850F82C00C0F3031004283C
:105960000ED90020E06102F0C000C028C3D1254854
:1059700002F03F0C50F82CC0204850F82C008EE765
:10598000DFF884C022295CF82000E06184D9EAE7CE
:1059900002F0C003C02B0AD1C92908D8194B02F064
:1059A0003F0253F82220154B53F82200C5E70F2081
:1059B000C5E794F828305B071BD4222E08D80F4B7C
:1059C00053F82600C0F3031003F0E4F988B9FEE7AA
:1059D00005F0C003C02B0AD1C92E08D8094B05F029
:1059E0003F0553F82520054B53F82200EAE70F2026
:1059F000EAE72046F8BD00BFC4E0000810E5000853
:105A000010E10008E8E400082C00002010B590F830
:105A1000283004465B07416209D4FFF777FD204632
:105A2000FFF783FD2046BDE81040FFF7E3BDFFF719
:105A30006DFD10BD0149024802F0D8BB00080040CE
:105A40004C0B0020014802F0CDBA00BF4C0B0020E7
:105A50007047000038B50E4B05461A784FF47A733C
:105A6000B3FBF2F30B4A1068B0FBF3F000F09CF8C4
:105A7000044658B90F2D09D8024629464FF0FF3089
:105A800000F042F82046044B1D6038BD0120FCE7C1
:105A9000240000204800002028000020074A08B504
:105AA0001368032043F01003136000F01BF800207C
:105AB000FFF7D0FFFFF7CCFF002008BD0020024019
:105AC000034A044B11681B780B441360704700BFF6
:105AD000FC0B002024000020014B1868704700BF19
